{
  "contractName": "VotingSystem",
  "abi": [
    {
      "inputs": [],
      "stateMutability": "nonpayable",
      "type": "constructor"
    },
    {
      "anonymous": false,
      "inputs": [
        {
          "indexed": false,
          "internalType": "uint256",
          "name": "candidateId",
          "type": "uint256"
        },
        {
          "indexed": false,
          "internalType": "string",
          "name": "name",
          "type": "string"
        }
      ],
      "name": "CandidateAdded",
      "type": "event"
    },
    {
      "anonymous": false,
      "inputs": [
        {
          "indexed": false,
          "internalType": "address",
          "name": "voter",
          "type": "address"
        },
        {
          "indexed": false,
          "internalType": "uint256",
          "name": "candidateId",
          "type": "uint256"
        }
      ],
      "name": "VoteCast",
      "type": "event"
    },
    {
      "anonymous": false,
      "inputs": [],
      "name": "VotingEnded",
      "type": "event"
    },
    {
      "anonymous": false,
      "inputs": [],
      "name": "VotingStarted",
      "type": "event"
    },
    {
      "inputs": [
        {
          "internalType": "uint256",
          "name": "",
          "type": "uint256"
        }
      ],
      "name": "candidates",
      "outputs": [
        {
          "internalType": "uint256",
          "name": "id",
          "type": "uint256"
        },
        {
          "internalType": "string",
          "name": "name",
          "type": "string"
        },
        {
          "internalType": "uint256",
          "name": "voteCount",
          "type": "uint256"
        }
      ],
      "stateMutability": "view",
      "type": "function"
    },
    {
      "inputs": [],
      "name": "candidatesCount",
      "outputs": [
        {
          "internalType": "uint256",
          "name": "",
          "type": "uint256"
        }
      ],
      "stateMutability": "view",
      "type": "function"
    },
    {
      "inputs": [
        {
          "internalType": "address",
          "name": "",
          "type": "address"
        }
      ],
      "name": "hasVoted",
      "outputs": [
        {
          "internalType": "bool",
          "name": "",
          "type": "bool"
        }
      ],
      "stateMutability": "view",
      "type": "function"
    },
    {
      "inputs": [],
      "name": "owner",
      "outputs": [
        {
          "internalType": "address",
          "name": "",
          "type": "address"
        }
      ],
      "stateMutability": "view",
      "type": "function"
    },
    {
      "inputs": [],
      "name": "votingOpen",
      "outputs": [
        {
          "internalType": "bool",
          "name": "",
          "type": "bool"
        }
      ],
      "stateMutability": "view",
      "type": "function"
    },
    {
      "inputs": [
        {
          "internalType": "string",
          "name": "_name",
          "type": "string"
        }
      ],
      "name": "addCandidate",
      "outputs": [],
      "stateMutability": "nonpayable",
      "type": "function"
    },
    {
      "inputs": [],
      "name": "startVoting",
      "outputs": [],
      "stateMutability": "nonpayable",
      "type": "function"
    },
    {
      "inputs": [],
      "name": "endVoting",
      "outputs": [],
      "stateMutability": "nonpayable",
      "type": "function"
    },
    {
      "inputs": [
        {
          "internalType": "uint256",
          "name": "_candidateId",
          "type": "uint256"
        }
      ],
      "name": "vote",
      "outputs": [],
      "stateMutability": "nonpayable",
      "type": "function"
    },
    {
      "inputs": [
        {
          "internalType": "uint256",
          "name": "_candidateId",
          "type": "uint256"
        }
      ],
      "name": "getCandidate",
      "outputs": [
        {
          "internalType": "uint256",
          "name": "",
          "type": "uint256"
        },
        {
          "internalType": "string",
          "name": "",
          "type": "string"
        },
        {
          "internalType": "uint256",
          "name": "",
          "type": "uint256"
        }
      ],
      "stateMutability": "view",
      "type": "function"
    },
    {
      "inputs": [],
      "name": "getCandidatesCount",
      "outputs": [
        {
          "internalType": "uint256",
          "name": "",
          "type": "uint256"
        }
      ],
      "stateMutability": "view",
      "type": "function"
    },
    {
      "inputs": [
        {
          "internalType": "address",
          "name": "_address",
          "type": "address"
        }
      ],
      "name": "hasAddressVoted",
      "outputs": [
        {
          "internalType": "bool",
          "name": "",
          "type": "bool"
        }
      ],
      "stateMutability": "view",
      "type": "function"
    },
    {
      "inputs": [],
      "name": "isVotingOpen",
      "outputs": [
        {
          "internalType": "bool",
          "name": "",
          "type": "bool"
        }
      ],
      "stateMutability": "view",
      "type": "function"
    },
    {
      "inputs": [],
      "name": "getAllResults",
      "outputs": [
        {
          "internalType": "string[]",
          "name": "names",
          "type": "string[]"
        },
        {
          "internalType": "uint256[]",
          "name": "votes",
          "type": "uint256[]"
        }
      ],
      "stateMutability": "view",
      "type": "function"
    },
    {
      "inputs": [],
      "name": "getWinner",
      "outputs": [
        {
          "internalType": "string",
          "name": "winnerName",
          "type": "string"
        },
        {
          "internalType": "uint256",
          "name": "winnerVotes",
          "type": "uint256"
        }
      ],
      "stateMutability": "view",
      "type": "function"
    }
  ],
  "bytecode": "0x608060405234801561000f575f80fd5b50335f806101000a81548173ffffffffffffffffffffffffffffffffffffffff021916908373ffffffffffffffffffffffffffffffffffffffff1602179055505f60045f6101000a81548160ff021916908315150217905550611d2e806100755f395ff3fe608060405234801561000f575f80fd5b50600436106100f3575f3560e01c806376d9be0811610095578063bb9aa28f11610064578063bb9aa28f14610265578063c3403ddf14610283578063e3e6ca7d1461028d578063fa7f1bae146102bd576100f3565b806376d9be08146101eb5780638da5cb5b1461020a5780638e7ea5b214610228578063a95824b414610247576100f3565b80632d35a8a2116100d15780632d35a8a21461014d5780633477ee2e1461016b57806335b8e8201461019d578063462e91ec146101cf576100f3565b80630121b93f146100f757806309eef43e146101135780631ec6b60a14610143575b5f80fd5b610111600480360381019061010c9190610f63565b6102db565b005b61012d60048036038101906101289190610fe8565b6104bf565b60405161013a919061102d565b60405180910390f35b61014b6104dc565b005b610155610644565b6040516101629190611055565b60405180910390f35b61018560048036038101906101809190610f63565b61064a565b604051610194939291906110f8565b60405180910390f35b6101b760048036038101906101b29190610f63565b6106f6565b6040516101c6939291906110f8565b60405180910390f35b6101e960048036038101906101e49190611260565b61082a565b005b6101f36109f9565b604051610201929190611461565b60405180910390f35b610212610bc7565b60405161021f91906114a5565b60405180910390f35b610230610bea565b60405161023e9291906114be565b60405180910390f35b61024f610d7b565b60405161025c919061102d565b60405180910390f35b61026d610d8d565b60405161027a9190611055565b60405180910390f35b61028b610d96565b005b6102a760048036038101906102a29190610fe8565b610eb8565b6040516102b4919061102d565b60405180910390f35b6102c5610f0a565b6040516102d2919061102d565b60405180910390f35b60045f9054906101000a900460ff16610329576040517f08c379a000000000000000000000000000000000000000000000000000000000815260040161032090611536565b60405180910390fd5b60025f3373ffffffffffffffffffffffffffffffffffffffff1673ffffffffffffffffffffffffffffffffffffffff1681526020019081526020015f205f9054906101000a900460ff16156103b3576040517f08c379a00000000000000000000000000000000000000000000000000000000081526004016103aa9061159e565b60405180910390fd5b805f811180156103c557506003548111155b610404576040517f08c379a00000000000000000000000000000000000000000000000000000000081526004016103fb90611606565b60405180910390fd5b600160025f3373ffffffffffffffffffffffffffffffffffffffff1673ffffffffffffffffffffffffffffffffffffffff1681526020019081526020015f205f6101000a81548160ff02191690831515021790555060015f8381526020019081526020015f206002015f81548092919061047d90611651565b91905055507fa36cc2bebb74db33e9f88110a07ef56e1b31b24b4c4f51b54b1664266e29f45b33836040516104b3929190611698565b60405180910390a15050565b6002602052805f5260405f205f915054906101000a900460ff1681565b5f8054906101000a900473ffffffffffffffffffffffffffffffffffffffff1673ffffffffffffffffffffffffffffffffffffffff163373ffffffffffffffffffffffffffffffffffffffff1614610569576040517f08c379a00000000000000000000000000000000000000000000000000000000081526004016105609061172f565b60405180910390fd5b60045f9054906101000a900460ff16156105b8576040517f08c379a00000000000000000000000000000000000000000000000000000000081526004016105af90611797565b60405180910390fd5b5f600354116105fc576040517f08c379a00000000000000000000000000000000000000000000000000000000081526004016105f3906117ff565b60405180910390fd5b600160045f6101000a81548160ff0219169083151502179055507f877e2548498f42b7975a186b94ef1d32c86d420b7b806dd2be2bea293b89590460405160405180910390a1565b60035481565b6001602052805f5260405f205f91509050805f01549080600101805461066f9061184a565b80601f016020809104026020016040519081016040528092919081815260200182805461069b9061184a565b80156106e65780601f106106bd576101008083540402835291602001916106e6565b820191905f5260205f20905b8154815290600101906020018083116106c957829003601f168201915b5050505050908060020154905083565b5f60605f835f8111801561070c57506003548111155b61074b576040517f08c379a000000000000000000000000000000000000000000000000000000000815260040161074290611606565b60405180910390fd5b5f60015f8781526020019081526020015f206040518060600160405290815f82015481526020016001820180546107819061184a565b80601f01602080910402602001604051908101604052809291908181526020018280546107ad9061184a565b80156107f85780601f106107cf576101008083540402835291602001916107f8565b820191905f5260205f20905b8154815290600101906020018083116107db57829003601f168201915b505050505081526020016002820154815250509050805f01518160200151826040015194509450945050509193909250565b5f8054906101000a900473ffffffffffffffffffffffffffffffffffffffff1673ffffffffffffffffffffffffffffffffffffffff163373ffffffffffffffffffffffffffffffffffffffff16146108b7576040517f08c379a00000000000000000000000000000000000000000000000000000000081526004016108ae9061172f565b60405180910390fd5b60045f9054906101000a900460ff1615610906576040517f08c379a00000000000000000000000000000000000000000000000000000000081526004016108fd906118ea565b60405180910390fd5b5f815111610949576040517f08c379a000000000000000000000000000000000000000000000000000000000815260040161094090611978565b60405180910390fd5b60035f81548092919061095b90611651565b9190505550604051806060016040528060035481526020018281526020015f81525060015f60035481526020019081526020015f205f820151815f015560208201518160010190816109ad9190611b33565b50604082015181600201559050507fe83b2a43e7e82d975c8a0a6d2f045153c869e111136a34d1889ab7b598e396a3600354826040516109ee929190611c02565b60405180910390a150565b60608060035467ffffffffffffffff811115610a1857610a1761113c565b5b604051908082528060200260200182016040528015610a4b57816020015b6060815260200190600190039081610a365790505b50915060035467ffffffffffffffff811115610a6a57610a6961113c565b5b604051908082528060200260200182016040528015610a985781602001602082028036833780820191505090505b5090505f600190505b6003548111610bc25760015f8281526020019081526020015f206001018054610ac99061184a565b80601f0160208091040260200160405190810160405280929190818152602001828054610af59061184a565b8015610b405780601f10610b1757610100808354040283529160200191610b40565b820191905f5260205f20905b815481529060010190602001808311610b2357829003601f168201915b505050505083600183610b539190611c30565b81518110610b6457610b63611c63565b5b602002602001018190525060015f8281526020019081526020015f206002015482600183610b929190611c30565b81518110610ba357610ba2611c63565b5b6020026020010181815250508080610bba90611651565b915050610aa1565b509091565b5f8054906101000a900473ffffffffffffffffffffffffffffffffffffffff1681565b60605f8060035411610c31576040517f08c379a0000000000000000000000000000000000000000000000000000000008152600401610c2890611cda565b60405180910390fd5b5f805f600190505b6003548111610c8c578260015f8381526020019081526020015f20600201541115610c795760015f8281526020019081526020015f206002015492508091505b8080610c8490611651565b915050610c39565b505f8114610d395760015f8281526020019081526020015f206001018054610cb39061184a565b80601f0160208091040260200160405190810160405280929190818152602001828054610cdf9061184a565b8015610d2a5780601f10610d0157610100808354040283529160200191610d2a565b820191905f5260205f20905b815481529060010190602001808311610d0d57829003601f168201915b50505050509350819250610d75565b6040518060400160405280600a81526020017f417563756e20766f74650000000000000000000000000000000000000000000081525093505f92505b50509091565b60045f9054906101000a900460ff1681565b5f600354905090565b5f8054906101000a900473ffffffffffffffffffffffffffffffffffffffff1673ffffffffffffffffffffffffffffffffffffffff163373ffffffffffffffffffffffffffffffffffffffff1614610e23576040517f08c379a0000000000000000000000000000000000000000000000000000000008152600401610e1a9061172f565b60405180910390fd5b60045f9054906101000a900460ff16610e71576040517f08c379a0000000000000000000000000000000000000000000000000000000008152600401610e6890611536565b60405180910390fd5b5f60045f6101000a81548160ff0219169083151502179055507f7a19ed057db79e3c2fa0b97a54b43bef4fce74b31bb6c01af514b9a18a7f70ab60405160405180910390a1565b5f60025f8373ffffffffffffffffffffffffffffffffffffffff1673ffffffffffffffffffffffffffffffffffffffff1681526020019081526020015f205f9054906101000a900460ff169050919050565b5f60045f9054906101000a900460ff16905090565b5f604051905090565b5f80fd5b5f80fd5b5f819050919050565b610f4281610f30565b8114610f4c575f80fd5b50565b5f81359050610f5d81610f39565b92915050565b5f60208284031215610f7857610f77610f28565b5b5f610f8584828501610f4f565b91505092915050565b5f73ffffffffffffffffffffffffffffffffffffffff82169050919050565b5f610fb782610f8e565b9050919050565b610fc781610fad565b8114610fd1575f80fd5b50565b5f81359050610fe281610fbe565b92915050565b5f60208284031215610ffd57610ffc610f28565b5b5f61100a84828501610fd4565b91505092915050565b5f8115159050919050565b61102781611013565b82525050565b5f6020820190506110405f83018461101e565b92915050565b61104f81610f30565b82525050565b5f6020820190506110685f830184611046565b92915050565b5f81519050919050565b5f82825260208201905092915050565b5f5b838110156110a557808201518184015260208101905061108a565b5f8484015250505050565b5f601f19601f8301169050919050565b5f6110ca8261106e565b6110d48185611078565b93506110e4818560208601611088565b6110ed816110b0565b840191505092915050565b5f60608201905061110b5f830186611046565b818103602083015261111d81856110c0565b905061112c6040830184611046565b949350505050565b5f80fd5b5f80fd5b7f4e487b71000000000000000000000000000000000000000000000000000000005f52604160045260245ffd5b611172826110b0565b810181811067ffffffffffffffff821117156111915761119061113c565b5b80604052505050565b5f6111a3610f1f565b90506111af8282611169565b919050565b5f67ffffffffffffffff8211156111ce576111cd61113c565b5b6111d7826110b0565b9050602081019050919050565b828183375f83830152505050565b5f6112046111ff846111b4565b61119a565b9050828152602081018484840111156112205761121f611138565b5b61122b8482856111e4565b509392505050565b5f82601f83011261124757611246611134565b5b81356112578482602086016111f2565b91505092915050565b5f6020828403121561127557611274610f28565b5b5f82013567ffffffffffffffff81111561129257611291610f2c565b5b61129e84828501611233565b91505092915050565b5f81519050919050565b5f82825260208201905092915050565b5f819050602082019050919050565b5f82825260208201905092915050565b5f6112ea8261106e565b6112f481856112d0565b9350611304818560208601611088565b61130d816110b0565b840191505092915050565b5f61132383836112e0565b905092915050565b5f602082019050919050565b5f611341826112a7565b61134b81856112b1565b93508360208202850161135d856112c1565b805f5b8581101561139857848403895281516113798582611318565b94506113848361132b565b925060208a01995050600181019050611360565b50829750879550505050505092915050565b5f81519050919050565b5f82825260208201905092915050565b5f819050602082019050919050565b6113dc81610f30565b82525050565b5f6113ed83836113d3565b60208301905092915050565b5f602082019050919050565b5f61140f826113aa565b61141981856113b4565b9350611424836113c4565b805f5b8381101561145457815161143b88826113e2565b9750611446836113f9565b925050600181019050611427565b5085935050505092915050565b5f6040820190508181035f8301526114798185611337565b9050818103602083015261148d8184611405565b90509392505050565b61149f81610fad565b82525050565b5f6020820190506114b85f830184611496565b92915050565b5f6040820190508181035f8301526114d681856110c0565b90506114e56020830184611046565b9392505050565b7f4c6520766f7465206e2765737420706173206f757665727400000000000000005f82015250565b5f611520601883611078565b915061152b826114ec565b602082019050919050565b5f6020820190508181035f83015261154d81611514565b9050919050565b7f566f7573206176657a2064656a6120766f7465000000000000000000000000005f82015250565b5f611588601383611078565b915061159382611554565b602082019050919050565b5f6020820190508181035f8301526115b58161157c565b9050919050565b7f43616e646964617420696e76616c6964650000000000000000000000000000005f82015250565b5f6115f0601183611078565b91506115fb826115bc565b602082019050919050565b5f6020820190508181035f83015261161d816115e4565b9050919050565b7f4e487b71000000000000000000000000000000000000000000000000000000005f52601160045260245ffd5b5f61165b82610f30565b91507fffffffffffffffffffffffffffffffffffffffffffffffffffffffffffffffff820361168d5761168c611624565b5b600182019050919050565b5f6040820190506116ab5f830185611496565b6116b86020830184611046565b9392505050565b7f5365756c206c652070726f7072696574616972652070657574206578656375745f8201527f657220636574746520666f6e6374696f6e000000000000000000000000000000602082015250565b5f611719603183611078565b9150611724826116bf565b604082019050919050565b5f6020820190508181035f8301526117468161170d565b9050919050565b7f4c6520766f7465206573742064656a61206f75766572740000000000000000005f82015250565b5f611781601783611078565b915061178c8261174d565b602082019050919050565b5f6020820190508181035f8301526117ae81611775565b9050919050565b7f417563756e2063616e646964617420616a6f75746500000000000000000000005f82015250565b5f6117e9601583611078565b91506117f4826117b5565b602082019050919050565b5f6020820190508181035f830152611816816117dd565b9050919050565b7f4e487b71000000000000000000000000000000000000000000000000000000005f52602260045260245ffd5b5f600282049050600182168061186157607f821691505b6020821081036118745761187361181d565b5b50919050565b7f496d706f737369626c65206427616a6f75746572206465732063616e646964615f8201527f74732070656e64616e74206c6520766f74650000000000000000000000000000602082015250565b5f6118d4603283611078565b91506118df8261187a565b604082019050919050565b5f6020820190508181035f830152611901816118c8565b9050919050565b7f4c65206e6f6d2064752063616e6469646174206e6520706575742070617320655f8201527f7472652076696465000000000000000000000000000000000000000000000000602082015250565b5f611962602883611078565b915061196d82611908565b604082019050919050565b5f6020820190508181035f83015261198f81611956565b9050919050565b5f819050815f5260205f209050919050565b5f6020601f8301049050919050565b5f82821b905092915050565b5f600883026119f27fffffffffffffffffffffffffffffffffffffffffffffffffffffffffffffffff826119b7565b6119fc86836119b7565b95508019841693508086168417925050509392505050565b5f819050919050565b5f611a37611a32611a2d84610f30565b611a14565b610f30565b9050919050565b5f819050919050565b611a5083611a1d565b611a64611a5c82611a3e565b8484546119c3565b825550505050565b5f90565b611a78611a6c565b611a83818484611a47565b505050565b5b81811015611aa657611a9b5f82611a70565b600181019050611a89565b5050565b601f821115611aeb57611abc81611996565b611ac5846119a8565b81016020851015611ad4578190505b611ae8611ae0856119a8565b830182611a88565b50505b505050565b5f82821c905092915050565b5f611b0b5f1984600802611af0565b1980831691505092915050565b5f611b238383611afc565b9150826002028217905092915050565b611b3c8261106e565b67ffffffffffffffff811115611b5557611b5461113c565b5b611b5f825461184a565b611b6a828285611aaa565b5f60209050601f831160018114611b9b575f8415611b89578287015190505b611b938582611b18565b865550611bfa565b601f198416611ba986611996565b5f5b82811015611bd057848901518255600182019150602085019450602081019050611bab565b86831015611bed5784890151611be9601f891682611afc565b8355505b6001600288020188555050505b505050505050565b5f604082019050611c155f830185611046565b8181036020830152611c2781846110c0565b90509392505050565b5f611c3a82610f30565b9150611c4583610f30565b9250828203905081811115611c5d57611c5c611624565b5b92915050565b7f4e487b71000000000000000000000000000000000000000000000000000000005f52603260045260245ffd5b7f417563756e2063616e64696461740000000000000000000000000000000000005f82015250565b5f611cc4600e83611078565b9150611ccf82611c90565b602082019050919050565b5f6020820190508181035f830152611cf181611cb8565b905091905056fea264697066735822122052a21d8254eed32899b2df507cd0cf5151c23c3bc0a07ad49fa799fa6206c7c364736f6c63430008150033",
  "immutableReferences": {},
  "source": "// SPDX-License-Identifier: MIT\r\npragma solidity ^0.8.0;\r\n\r\ncontract VotingSystem {\r\n    // Structure pour reprsenter un candidat\r\n    struct Candidate {\r\n        uint256 id;\r\n        string name;\r\n        uint256 voteCount;\r\n    }\r\n    \r\n    // Variables d'tat\r\n    address public owner;\r\n    mapping(uint256 => Candidate) public candidates;\r\n    mapping(address => bool) public hasVoted;\r\n    uint256 public candidatesCount;\r\n    bool public votingOpen;\r\n    \r\n    // vnements\r\n    event CandidateAdded(uint256 candidateId, string name);\r\n    event VoteCast(address voter, uint256 candidateId);\r\n    event VotingStarted();\r\n    event VotingEnded();\r\n    \r\n    // Modificateurs\r\n    modifier onlyOwner() {\r\n        require(msg.sender == owner, \"Seul le proprietaire peut executer cette fonction\");\r\n        _;\r\n    }\r\n    \r\n    modifier votingIsOpen() {\r\n        require(votingOpen, \"Le vote n'est pas ouvert\");\r\n        _;\r\n    }\r\n    \r\n    modifier hasNotVoted() {\r\n        require(!hasVoted[msg.sender], \"Vous avez deja vote\");\r\n        _;\r\n    }\r\n    \r\n    modifier validCandidate(uint256 _candidateId) {\r\n        require(_candidateId > 0 && _candidateId <= candidatesCount, \"Candidat invalide\");\r\n        _;\r\n    }\r\n    \r\n    // Constructeur\r\n    constructor() {\r\n        owner = msg.sender;\r\n        votingOpen = false;\r\n    }\r\n    \r\n    // Ajouter un candidat (seulement le propritaire)\r\n    function addCandidate(string memory _name) public onlyOwner {\r\n        require(!votingOpen, \"Impossible d'ajouter des candidats pendant le vote\");\r\n        require(bytes(_name).length > 0, \"Le nom du candidat ne peut pas etre vide\");\r\n        \r\n        candidatesCount++;\r\n        candidates[candidatesCount] = Candidate(candidatesCount, _name, 0);\r\n        \r\n        emit CandidateAdded(candidatesCount, _name);\r\n    }\r\n    \r\n    // Dmarrer le vote\r\n    function startVoting() public onlyOwner {\r\n        require(!votingOpen, \"Le vote est deja ouvert\");\r\n        require(candidatesCount > 0, \"Aucun candidat ajoute\");\r\n        \r\n        votingOpen = true;\r\n        emit VotingStarted();\r\n    }\r\n    \r\n    // Arrter le vote\r\n    function endVoting() public onlyOwner {\r\n        require(votingOpen, \"Le vote n'est pas ouvert\");\r\n        \r\n        votingOpen = false;\r\n        emit VotingEnded();\r\n    }\r\n    \r\n    // Voter pour un candidat\r\n    function vote(uint256 _candidateId) \r\n        public \r\n        votingIsOpen \r\n        hasNotVoted \r\n        validCandidate(_candidateId) \r\n    {\r\n        hasVoted[msg.sender] = true;\r\n        candidates[_candidateId].voteCount++;\r\n        \r\n        emit VoteCast(msg.sender, _candidateId);\r\n    }\r\n    \r\n    // Obtenir les informations d'un candidat\r\n    function getCandidate(uint256 _candidateId) \r\n        public \r\n        view \r\n        validCandidate(_candidateId) \r\n        returns (uint256, string memory, uint256) \r\n    {\r\n        Candidate memory candidate = candidates[_candidateId];\r\n        return (candidate.id, candidate.name, candidate.voteCount);\r\n    }\r\n    \r\n    // Obtenir le nombre total de candidats\r\n    function getCandidatesCount() public view returns (uint256) {\r\n        return candidatesCount;\r\n    }\r\n    \r\n    // Vrifier si une adresse a dj vot\r\n    function hasAddressVoted(address _address) public view returns (bool) {\r\n        return hasVoted[_address];\r\n    }\r\n    \r\n    // Vrifier si le vote est ouvert\r\n    function isVotingOpen() public view returns (bool) {\r\n        return votingOpen;\r\n    }\r\n    \r\n    // Obtenir tous les rsultats (fonction utilitaire)\r\n    function getAllResults() public view returns (string[] memory names, uint256[] memory votes) {\r\n        names = new string[](candidatesCount);\r\n        votes = new uint256[](candidatesCount);\r\n        \r\n        for (uint256 i = 1; i <= candidatesCount; i++) {\r\n            names[i-1] = candidates[i].name;\r\n            votes[i-1] = candidates[i].voteCount;\r\n        }\r\n        \r\n        return (names, votes);\r\n    }\r\n    \r\n    // Obtenir le gagnant (en cas d'galit, retourne le premier trouv)\r\n    function getWinner() public view returns (string memory winnerName, uint256 winnerVotes) {\r\n        require(candidatesCount > 0, \"Aucun candidat\");\r\n        \r\n        uint256 winningVoteCount = 0;\r\n        uint256 winningCandidateId = 0;\r\n        \r\n        for (uint256 i = 1; i <= candidatesCount; i++) {\r\n            if (candidates[i].voteCount > winningVoteCount) {\r\n                winningVoteCount = candidates[i].voteCount;\r\n                winningCandidateId = i;\r\n            }\r\n        }\r\n        \r\n        if (winningCandidateId != 0) {\r\n            winnerName = candidates[winningCandidateId].name;\r\n            winnerVotes = winningVoteCount;\r\n        } else {\r\n            winnerName = \"Aucun vote\";\r\n            winnerVotes = 0;\r\n        }\r\n    }\r\n}",
  "sourcePath": "C:\\Users\\zebes\\Documents\\Projets\\VotingBlockchain\\contracts\\VotingSystem.sol",
  "compiler": {
    "name": "solc",
    "version": "0.8.21+commit.d9974bed.Emscripten.clang"
  },
  "schemaVersion": "3.4.16",
  "updatedAt": "2025-08-21T11:25:29.483Z",
  "devdoc": {
    "kind": "dev",
    "methods": {},
    "version": 1
  },
  "userdoc": {
    "kind": "user",
    "methods": {},
    "version": 1
  }
}